:100000000C9446000C9465000C9465000C946500FB
:100010000C9465000C9465000C9465000C946500CC
:100020000C9465000C9465000C9465000C946500BC
:100030000C9465000C9465000C9465000C946500AC
:100040000C946D000C949C010C9465000C9465005C
:100050000C9465000C9465000C9465000C9465008C
:100060000C9465000C9465000C9465000C9465007C
:100070000C9465000C9465000C9458010C94650078
:100080000C9465000C9465000C94650011241FBE4F
:10009000CFEFD0E1DEBFCDBF11E0A0E0B1E0E4EFF3
:1000A000F2E100E00BBF02C007900D92A831B1074A
:1000B000D9F711E0A8E1B1E001C01D92A833B10762
:1000C000E1F70E94E3000C9479090C94000086E0AB
:1000D00083BF12BE81E087BF08951F920F920FB6B3
:1000E0000F921124EF92FF920F931F932F933F9340
:1000F0004F935F936F937F938F939F93AF93BF9330
:10010000EF93FF93809118018F5F809318018F33D5
:1001100010F4DF9843C08E3710F4DF9A3FC021E01F
:1001200041E061E088E291E00E943605809326017B
:10013000E0902801F090290100912A0110912B01F3
:100140002091000130910101409102015091030181
:10015000C801B7010E943508882344F4E0920001E9
:10016000F092010100930201109303012091190103
:1001700030911A0140911B0150911C01C801B70137
:100180000E943908181644F4E0921901F0921A01FD
:1001900000931B0110931C0110921801FF91EF9125
:1001A000BF91AF919F918F917F916F915F914F918F
:1001B0003F912F911F910F91FF90EF900F900FBEE5
:1001C0000F901F9018950E94A60586E083BF12BE6F
:1001D00081E087BF41E061E00E9405058F9A979A10
:1001E000789486E696E6A2ECB1E480932801909399
:1001F0002901A0932A01B0932B0189B3682F70E0E5
:1002000062707070759567956093240189B3482F6B
:1002100050E04470507055954795559547954093DB
:10022000250189B3282F30E02870307083E03595A0
:1002300027958A95E1F72093270180911D019091E0
:100240001E01885E934054F1222349F4609100011D
:100250007091010180910201909103010AC0442331
:1002600061F4609128017091290180912A01909197
:100270002B0141E00E942A030DC0662349F46091DE
:10028000190170911A0180911B0190911C01F1CF0D
:100290000E94FF0410921E0110921D0180911D0109
:1002A00090911E01019690931E0180931D01A5CF90
:1002B0001F920F920FB60F9211242F933F934F93DB
:1002C0005F936F937F938F939F93AF93BF93EF93BE
:1002D000FF93E0912001F09121010995FF91EF91A9
:1002E000BF91AF919F918F917F916F915F914F914E
:1002F0003F912F910F900FBE0F901F901895982F40
:1003000080919B0085FD04C080911F018823C1F36B
:1003100090939C0080E090E008950E947F010895F2
:1003200080919B0087FD04C080911F018823C1F349
:1003300080919C0090E008951F920F920FB60F924B
:1003400011242F933F934F935F936F937F938F93DA
:100350009F93AF93BF93EF93FF93E0912201F091AE
:1003600023010995FF91EF91BF91AF919F918F91DB
:100370007F916F915F914F913F912F910F900FBEA1
:100380000F901F90189597B3976097BBBB98880FF5
:10039000880F880F8065660F660F682B4295440FA3
:1003A000407E462B4DB9822F8350823010F027308B
:1003B00009F4689A253008F0699A213021F0233039
:1003C00011F0253009F4709A08959C01BB9A87B307
:1003D000887F87BB80E48DB92115310529F03093E2
:1003E0002301209322016F9A0895FB018FB9779919
:1003F00004C080911F018823D1F3309711F08FB191
:10040000808380E090E00895109271009C01442761
:1004100037FD4095542F60E47FE180E090E00E943A
:100420002809DA01C901409762E070E00E941509CD
:100430006093700084E0809374000895982F990F62
:100440006111916020E030E02FC084EA8093740055
:100450008091740087FD04C080911F018823C1F33F
:1004600080917100887F883011F08031B9F49093C9
:10047000730084E8809374008091740087FD04C049
:1004800080911F018823C1F380917100887F6623CA
:1004900019F4883119F40DC0803459F02F5F3F4FA3
:1004A00083E0283E380741F080911F01882369F2DC
:1004B00003C080E090E0089581E090E0089560E05E
:1004C0000E941E0290E008958093730084E8809358
:1004D00074008091740087FD04C080911F018823FF
:1004E000C1F38091710020E030E0887F883211F004
:1004F00021E030E0C901089561E00E941E0290E011
:100500000895FC01662311F084E801C084EC809317
:1005100074008091740087FD04C080911F018823BE
:10052000C1F380911F01882319F081E090E00895C4
:1005300080917300808380E090E0089584E9809347
:10054000740008950F931F93CF93DF938B019C0149
:10055000EA01F89494E0000F111F221F331F9A95AF
:10056000D1F760E072E18AE790E0A90198010E946A
:100570002809215030403F70832F9927809398009D
:100580002093990086E080939D0088E180939A00F3
:10059000209749F080919A00806880939A00D093C8
:1005A0002101C093200180912C0190912D01009791
:1005B00031F00E94C50510922D0110922C016FEEB2
:1005C00072E08DE891E00E94F00590932D018093F8
:1005D0002C017894DF91CF911F910F9108950F9383
:1005E0001F93CF93DF938C0180919B0087FD04C004
:1005F00080911F018823C1F380919C008D3019F0F8
:10060000C82FD0E006C0B8018DE00E948D01CAE07D
:10061000D0E0B8018C2F0E948D01CE01DF91CF91E7
:100620001F910F9108950F931F93162F042FD898A1
:1006300060E070E00E94F50160E070E0812F0E94B0
:10064000F50160E070E0802F0E94F501D89A1F91BB
:100650000F9108959F92AF92BF92CF92DF92EF9247
:10066000FF920F931F93CF93DF935B016C01413097
:1006700009F4B5C0413020F0423009F0AFC13DC1AE
:1006800020E030EC49E754E40E94390818160CF4D5
:10069000A5C120E030E046EC52ECC601B5010E9455
:1006A000350887FD9BC120E030E040E050E0C60106
:1006B000B5010E94390818161CF09BE0992E31C034
:1006C00020E030E048EC52E4C601B5010E945F072B
:1006D0007B018C0120E030E040E050E00E943908CE
:1006E00018163CF420E030E040E85FE3C801B701B1
:1006F0000CC020E030E048EC52ECC601B5010E948D
:100700005F0720E030E040E85FE30E94390887FFA0
:1007100003C08AE0982E05C0C801B7010E94CC072B
:10072000962E20E030E040E251E4C601B5010E947F
:100730005F077B018C0120E030E040E050E00E9448
:10074000390818163CF420E030E040E85FE3C801C7
:10075000B7010CC020E030E040E251ECC601B50129
:100760000E945F0720E030E040E85FE30E94390824
:1007700087FF02C01AE015C0C601B5010E94C70775
:10078000DC01CB0164E670E00E9415098A30910516
:100790001CF06AE070E002C066EF7FEF0E9415096E
:1007A000162FC601B5010E94C707DC01CB016AE024
:1007B00070E00E94150997FF03C0909581959F4FA7
:1007C00090E08C5F9E4FA12FB0E0AC5FBE4FE92D53
:1007D000F0E0EC5FFE4FEC0148816C918CC020E0B2
:1007E00030E048EC52E40E94390887FFF7C020E06F
:1007F00030E040E151ECC601B5010E94350887FDAB
:10080000EDC020E030E040E050E0C601B5010E94BC
:10081000390818160CF040C020E030E040E251E406
:10082000C601B5010E945F077B018C0120E030E02A
:1008300040E050E00E94390818163CF420E030E017
:1008400040E85FE3C801B7010CC020E030E040E2BF
:1008500051ECC601B5010E945F0720E030E040E89E
:100860005FE30E94390888230CF4BBC0C801B701BC
:100870000E94CC07162F20E030E040E251E4C60190
:10088000B5010E94B2080E94C707DC01CB016AE0F3
:1008900070E00E94150911C020E030E040E251EC08
:1008A000C601B5010E94B2080E94C707DC01CB0156
:1008B0006AE070E00E9415091BE0C82FD0E0CC5F11
:1008C000DE4FC601B5010E94C707DC01CB016AE01B
:1008D00070E00E94150997FF03C0909581959F4F86
:1008E000E82FF0E0EC5FFE4F6081677FE12FF0E0E2
:1008F000EC5FFE4F488180816CC020E030E040E238
:1009000051E40E94390887FF69C020E030E040E0F0
:1009100050E0C601B5010E94350887FD5FC020E0A8
:1009200030E040E050E0C601B5010E9439081816D9
:10093000B4F420E030E040E251E4C601B5010E9489
:10094000B2080E94C707DC01CB016AE070E00E9498
:100950001509082F20E030E048EC52E415C020E0F3
:1009600030E040E251ECC601B5010E94B2080E949D
:10097000C707DC01CB016AE070E00E941509082F6F
:1009800020E030E048EC52ECC601B5010E94B2080C
:100990000E94C707DC01CB016AE070E00E941509E4
:1009A000E82EFF24E4E0F1E0EE0EFF1E10E00E0F53
:1009B0001F1FC601B5010E94CC07DC01CB0190E0EE
:1009C0008C5F9E4FEC018881F7014081E8016881CE
:1009D000877F0E94130380E090E005C081E090E0F3
:1009E00002C01AE048CFDF91CF911F910F91FF9085
:1009F000EF90DF90CF90BF90AF909F9008954FEF12
:100A00006FEF8FEF0E94130308951F9370E09B0117
:100A1000220F331F220F331F660F771F162F122B43
:100A20008864182B812F0E945F028130D9F081E009
:100A30000E9464028130B1F080E60E94640281303D
:100A400089F00E949E02812F0E945F02813051F046
:100A500080E00E946402813029F00E949E0280E0C2
:100A600090E002C081E090E01F910895EF92FF9224
:100A70000F931F93CF93DF93CDB7DEB722970FB6B7
:100A8000F894DEBF0FBECDBF7C0150E0CA01880FD5
:100A9000991F880F991F440F551F142F182B686436
:100AA000162B812F0E945F02813009F440C080E044
:100AB0000E9464028130D9F10E949E02812F0E941F
:100AC0007C028130A1F18E010F5F1F4F60E0C801F1
:100AD00001960E948102813051F161E0C8010E94BB
:100AE0008102813021F10E949E0289819A819C01BC
:100AF00054E0359527955A95E1F797FD306F3A8385
:100B0000298369817A81882777FD8095982F0E94B3
:100B1000FA0720E030E040E85DE30E94B208F70108
:100B2000608371838283938380E090E002C081E0E0
:100B300090E022960FB6F894DEBF0FBECDBFDF91D6
:100B4000CF911F910F91FF90EF900895D09AD89A6E
:100B5000D198D298D398D49AD59AD69AD79AA09861
:100B6000A198A298A39824E040E060E080E00E9471
:100B7000C30182E390E00E9404020E94FF0441E06E
:100B800061E081E00E9405050895FC01838187FFF3
:100B900024C080912E0190912F018E179F0721F480
:100BA00010922F0110922E0180913001909131010D
:100BB0008E179F0721F4109231011092300180911D
:100BC0003201909133018E179F0721F41092330167
:100BD00010923201CF010E94020780E090E0089558
:100BE000EF92FF920F931F93CF93DF938C017B01C2
:100BF000892B11F4672BD1F16EE070E081E090E079
:100C00000E943E06FC01009789F1DC0180E88383A5
:100C1000E114F10471F0F386E28681E88383809128
:100C20002E0190912F01892B21F4F0932F01E09355
:100C30002E0101151105E1F0118700878381826083
:100C400083838091300190913101892B89F4F09355
:100C50003101E09330018091320190913301892B71
:100C600039F4F0933301E093320102C0A0E0B0E028
:100C7000CD01E6E0CDB7DEB70C946A090F931F9360
:100C8000CF93DF93689F8001699F100D789F100DAF
:100C90001124C8010E945A06EC01009729F0A8010E
:100CA00060E070E00E945807CE01DF91CF911F9164
:100CB0000F910895CF93DF93AC01029710F442E0B7
:100CC00050E0A0913601B0913701FD01C0E0D0E0C5
:100CD00020E030E020C0808191818417950769F47D
:100CE00082819381209719F09B838A8304C090931B
:100CF0003701809336019F0132C04817590738F4F5
:100D00002115310519F08217930708F49C01EF01B2
:100D10000280F381E02D3097F1F62115310599F12C
:100D2000C901841B950B049708F4A901E0E0F0E0E9
:100D300028C08D919C91119782179307F9F4481759
:100D4000590781F4ED018A819B81309719F09383D3
:100D5000828304C090933701809336019D012E5FFA
:100D60003F4F4CC0841B950BFD01E80FF91F4193C9
:100D7000519302978D939C939F0140C0FD01A281E6
:100D8000B3811097B1F68091340190913501892B90
:100D900041F4809113019091140190933501809357
:100DA000340120911501309116012115310549F4C6
:100DB0008DB7282F30E08091110190911201281BEE
:100DC000390BA0913401B09135012A1B3B0B24173C
:100DD000350790F0CA0102962817390768F09D017F
:100DE0002E5F3F4FC901840F951F9093350180936B
:100DF00034014D935C9302C020E030E0C901DF91E3
:100E0000CF910895CF93DF93009709F44EC0EC0182
:100E100022971B821A82A0913601B0913701109758
:100E200011F140E050E001C0DC01AC17BD0700F15A
:100E3000BB83AA83FE0121913191E20FF31FEA17D0
:100E4000FB0771F48D919C911197280F391F2E5F2C
:100E50003F4F39832883FD01828193819B838A835D
:100E60004115510559F4D0933701C09336011DC087
:100E7000FD0182819381AD010097B1F6FA01D38320
:100E8000C28321913191E20FF31FEC17FD0769F442
:100E900088819981280F391F2E5F3F4FFA013183D6
:100EA00020838A819B8193838283DF91CF910895F0
:100EB000DC0101C06D9341505040E0F708950CD023
:100EC00017C10FD140F006D130F021F45F3F19F087
:100ED000F8C0511141C1FBC01CD198F39923C9F34B
:100EE0005523B1F3951B550BBB27AA276217730730
:100EF000840738F09F5F5F4F220F331F441FAA1FE4
:100F0000A9F333D00E2E3AF0E0E830D091505040A3
:100F1000E695001CCAF729D0FE2F27D0660F771F51
:100F2000881FBB1F261737074807AB07B0E809F033
:100F3000BB0B802DBF01FF2793585F4F2AF09E3FC8
:100F4000510568F0BEC008C15F3FECF3983EDCF38A
:100F5000869577956795B795F7959F5FC9F7880F41
:100F6000911D9695879597F90895E1E0660F771F93
:100F7000881FBB1F621773078407BA0720F0621B24
:100F8000730B840BBA0BEE1F88F7E095089504D01D
:100F90006894B111E1C00895C4D088F09F5790F0D3
:100FA000B92F9927B751A0F0D1F0660F771F881F8E
:100FB000991F1AF0BA95C9F712C0B13081F0CBD0A1
:100FC000B1E00895C8C0672F782F8827B85F39F03F
:100FD000B93FCCF3869577956795B395D9F73EF4ED
:100FE00090958095709561957F4F8F4F9F4F089595
:100FF000E89409C097FB3EF49095809570956195B3
:101000007F4F8F4F9F4F9923A9F0F92F96E9BB2768
:101010009395F695879577956795B795F111F8CFE4
:10102000FAF4BB0F11F460FF1BC06F5F7F4F8F4F4F
:101030009F4F16C0882311F096E911C0772321F045
:101040009EE8872F762F05C0662371F096E8862FDD
:1010500070E060E02AF09A95660F771F881FDAF734
:10106000880F9695879597F9089507D008F481E041
:10107000089503D008F48FEF0895990F0008550FD5
:10108000AA0BE0E8FEEF16161706E807F907C0F00E
:1010900012161306E407F50798F0621B730B840B16
:1010A000950B39F40A2661F0232B242B252B21F4F0
:1010B00008950A2609F4A140A6958FEF811D811D90
:1010C000089597F99F6780E870E060E008959FEFCA
:1010D00080EC089500240A941616170618060906CF
:1010E000089500240A94121613061406050608959E
:1010F000092E0394000C11F4882352F0BB0F40F426
:10110000BF2B11F460FF04C06F5F7F4F8F4F9F4F65
:10111000089557FD9058440F551F59F05F3F71F0E7
:101120004795880F97FB991F61F09F3F79F087954E
:101130000895121613061406551FF2CF4695F1DFD7
:1011400008C0161617061806991FF1CF8695710567
:10115000610508940895E894BB2766277727CB019B
:1011600097F908950BD0C4CFB5DF28F0BADF18F097
:10117000952309F0A6CFABCF1124EECFCADFA0F3A1
:10118000959FD1F3950F50E0551F629FF001729F1C
:10119000BB27F00DB11D639FAA27F00DB11DAA1F3B
:1011A000649F6627B00DA11D661F829F2227B00D88
:1011B000A11D621F739FB00DA11D621F839FA00D13
:1011C000611D221F749F3327A00D611D231F849F63
:1011D000600D211D822F762F6A2F11249F575040BA
:1011E0008AF0E1F088234AF0EE0FFF1FBB1F661F55
:1011F000771F881F91505040A9F79E3F510570F00E
:1012000060CFAACF5F3FECF3983EDCF386957795ED
:101210006795B795F795E7959F5FC1F7FE2B880F08
:10122000911D9695879597F9089597FB092E0726A6
:101230000AD077FD04D02ED006D000201AF4709585
:1012400061957F4F0895F6F7909581959F4F08958A
:10125000A1E21A2EAA1BBB1BFD010DC0AA1FBB1FBA
:10126000EE1FFF1FA217B307E407F50720F0A21B2C
:10127000B30BE40BF50B661F771F881F991F1A9499
:1012800069F760957095809590959B01AC01BD01C3
:10129000CF010895AA1BBB1B51E107C0AA1FBB1FAA
:1012A000A617B70710F0A61BB70B881F991F5A95F2
:1012B000A9F780959095BC01CD0108952A883988B9
:1012C00048885F846E847D848C849B84AA84B984DE
:1012D000C884DF80EE80FD800C811B81AA81B981EA
:1012E000CE0FD11D0FB6F894DEBF0FBECDBFED01FE
:0412F0000895FFCF8F
:1012F4000000C64228F91C58C94A0AF80848FFDF0A
:08130400F72000380100000091
:00000001FF
